{
  "_format": "hh-sol-artifact-1",
  "contractName": "DappLottery",
  "sourceName": "contracts/DappLottery.sol",
  "abi": [
    {
      "inputs": [
        {
          "internalType": "uint256",
          "name": "_servicePercent",
          "type": "uint256"
        }
      ],
      "stateMutability": "nonpayable",
      "type": "constructor"
    },
    {
      "anonymous": false,
      "inputs": [
        {
          "indexed": true,
          "internalType": "address",
          "name": "previousOwner",
          "type": "address"
        },
        {
          "indexed": true,
          "internalType": "address",
          "name": "newOwner",
          "type": "address"
        }
      ],
      "name": "OwnershipTransferred",
      "type": "event"
    },
    {
      "inputs": [
        {
          "internalType": "uint256",
          "name": "id",
          "type": "uint256"
        },
        {
          "internalType": "uint256",
          "name": "luckyNumberId",
          "type": "uint256"
        }
      ],
      "name": "buyTicket",
      "outputs": [],
      "stateMutability": "payable",
      "type": "function"
    },
    {
      "inputs": [
        {
          "internalType": "string",
          "name": "title",
          "type": "string"
        },
        {
          "internalType": "string",
          "name": "description",
          "type": "string"
        },
        {
          "internalType": "string",
          "name": "image",
          "type": "string"
        },
        {
          "internalType": "uint256",
          "name": "prize",
          "type": "uint256"
        },
        {
          "internalType": "uint256",
          "name": "ticketPrice",
          "type": "uint256"
        },
        {
          "internalType": "uint256",
          "name": "expiresAt",
          "type": "uint256"
        }
      ],
      "name": "createLottery",
      "outputs": [],
      "stateMutability": "nonpayable",
      "type": "function"
    },
    {
      "inputs": [],
      "name": "getLotteries",
      "outputs": [
        {
          "components": [
            {
              "internalType": "uint256",
              "name": "id",
              "type": "uint256"
            },
            {
              "internalType": "string",
              "name": "title",
              "type": "string"
            },
            {
              "internalType": "string",
              "name": "description",
              "type": "string"
            },
            {
              "internalType": "string",
              "name": "image",
              "type": "string"
            },
            {
              "internalType": "uint256",
              "name": "prize",
              "type": "uint256"
            },
            {
              "internalType": "uint256",
              "name": "ticketPrice",
              "type": "uint256"
            },
            {
              "internalType": "uint256",
              "name": "participants",
              "type": "uint256"
            },
            {
              "internalType": "bool",
              "name": "drawn",
              "type": "bool"
            },
            {
              "internalType": "address",
              "name": "owner",
              "type": "address"
            },
            {
              "internalType": "uint256",
              "name": "createdAt",
              "type": "uint256"
            },
            {
              "internalType": "uint256",
              "name": "expiresAt",
              "type": "uint256"
            }
          ],
          "internalType": "struct DappLottery.LotteryStruct[]",
          "name": "Lotteries",
          "type": "tuple[]"
        }
      ],
      "stateMutability": "view",
      "type": "function"
    },
    {
      "inputs": [
        {
          "internalType": "uint256",
          "name": "id",
          "type": "uint256"
        }
      ],
      "name": "getLottery",
      "outputs": [
        {
          "components": [
            {
              "internalType": "uint256",
              "name": "id",
              "type": "uint256"
            },
            {
              "internalType": "string",
              "name": "title",
              "type": "string"
            },
            {
              "internalType": "string",
              "name": "description",
              "type": "string"
            },
            {
              "internalType": "string",
              "name": "image",
              "type": "string"
            },
            {
              "internalType": "uint256",
              "name": "prize",
              "type": "uint256"
            },
            {
              "internalType": "uint256",
              "name": "ticketPrice",
              "type": "uint256"
            },
            {
              "internalType": "uint256",
              "name": "participants",
              "type": "uint256"
            },
            {
              "internalType": "bool",
              "name": "drawn",
              "type": "bool"
            },
            {
              "internalType": "address",
              "name": "owner",
              "type": "address"
            },
            {
              "internalType": "uint256",
              "name": "createdAt",
              "type": "uint256"
            },
            {
              "internalType": "uint256",
              "name": "expiresAt",
              "type": "uint256"
            }
          ],
          "internalType": "struct DappLottery.LotteryStruct",
          "name": "",
          "type": "tuple"
        }
      ],
      "stateMutability": "view",
      "type": "function"
    },
    {
      "inputs": [
        {
          "internalType": "uint256",
          "name": "id",
          "type": "uint256"
        }
      ],
      "name": "getLotteryLuckyNumbers",
      "outputs": [
        {
          "internalType": "string[]",
          "name": "",
          "type": "string[]"
        }
      ],
      "stateMutability": "view",
      "type": "function"
    },
    {
      "inputs": [
        {
          "internalType": "uint256",
          "name": "id",
          "type": "uint256"
        }
      ],
      "name": "getLotteryParticipants",
      "outputs": [
        {
          "components": [
            {
              "internalType": "address",
              "name": "account",
              "type": "address"
            },
            {
              "internalType": "string",
              "name": "lotteryNumber",
              "type": "string"
            },
            {
              "internalType": "bool",
              "name": "paid",
              "type": "bool"
            }
          ],
          "internalType": "struct DappLottery.ParticipantStruct[]",
          "name": "",
          "type": "tuple[]"
        }
      ],
      "stateMutability": "view",
      "type": "function"
    },
    {
      "inputs": [
        {
          "internalType": "uint256",
          "name": "id",
          "type": "uint256"
        }
      ],
      "name": "getLotteryResult",
      "outputs": [
        {
          "components": [
            {
              "internalType": "uint256",
              "name": "id",
              "type": "uint256"
            },
            {
              "internalType": "bool",
              "name": "completed",
              "type": "bool"
            },
            {
              "internalType": "bool",
              "name": "paidout",
              "type": "bool"
            },
            {
              "internalType": "uint256",
              "name": "timestamp",
              "type": "uint256"
            },
            {
              "internalType": "uint256",
              "name": "sharePerWinner",
              "type": "uint256"
            },
            {
              "components": [
                {
                  "internalType": "address",
                  "name": "account",
                  "type": "address"
                },
                {
                  "internalType": "string",
                  "name": "lotteryNumber",
                  "type": "string"
                },
                {
                  "internalType": "bool",
                  "name": "paid",
                  "type": "bool"
                }
              ],
              "internalType": "struct DappLottery.ParticipantStruct[]",
              "name": "winners",
              "type": "tuple[]"
            }
          ],
          "internalType": "struct DappLottery.LotteryResultStruct",
          "name": "",
          "type": "tuple"
        }
      ],
      "stateMutability": "view",
      "type": "function"
    },
    {
      "inputs": [
        {
          "internalType": "uint256",
          "name": "id",
          "type": "uint256"
        },
        {
          "internalType": "string[]",
          "name": "luckyNumbers",
          "type": "string[]"
        }
      ],
      "name": "importLuckyNumbers",
      "outputs": [],
      "stateMutability": "nonpayable",
      "type": "function"
    },
    {
      "inputs": [],
      "name": "owner",
      "outputs": [
        {
          "internalType": "address",
          "name": "",
          "type": "address"
        }
      ],
      "stateMutability": "view",
      "type": "function"
    },
    {
      "inputs": [
        {
          "internalType": "uint256",
          "name": "id",
          "type": "uint256"
        },
        {
          "internalType": "uint256",
          "name": "numOfWinners",
          "type": "uint256"
        }
      ],
      "name": "randomlySelectWinners",
      "outputs": [],
      "stateMutability": "nonpayable",
      "type": "function"
    },
    {
      "inputs": [],
      "name": "renounceOwnership",
      "outputs": [],
      "stateMutability": "nonpayable",
      "type": "function"
    },
    {
      "inputs": [],
      "name": "serviceBalance",
      "outputs": [
        {
          "internalType": "uint256",
          "name": "",
          "type": "uint256"
        }
      ],
      "stateMutability": "view",
      "type": "function"
    },
    {
      "inputs": [],
      "name": "servicePercent",
      "outputs": [
        {
          "internalType": "uint256",
          "name": "",
          "type": "uint256"
        }
      ],
      "stateMutability": "view",
      "type": "function"
    },
    {
      "inputs": [
        {
          "internalType": "address",
          "name": "newOwner",
          "type": "address"
        }
      ],
      "name": "transferOwnership",
      "outputs": [],
      "stateMutability": "nonpayable",
      "type": "function"
    }
  ],
  "bytecode": "0x60806040523480156200001157600080fd5b506040516200263738038062002637833981016040819052620000349162000098565b6200003f3362000048565b600255620000b2565b600080546001600160a01b038381166001600160a01b0319831681178455604051919092169283917f8be0079c531659141344cd1fd0a4f28419497f9722a3daafe3b4186f6b6457e09190a35050565b600060208284031215620000ab57600080fd5b5051919050565b61257580620000c26000396000f3fe6080604052600436106100dd5760003560e01c806392e845f61161007f578063bcc82ec411610059578063bcc82ec414610255578063e2e4351614610277578063e8d490f114610297578063f2fde38b146102ad57600080fd5b806392e845f6146101db578063949ee75214610208578063ad19c8391461023557600080fd5b806370b261ae116100bb57806370b261ae1461014d578063715018a6146101715780638772d2dd146101865780638da5cb5b146101b357600080fd5b8063298ec208146100e257806335ea2063146100f757806368fb2eba14610117575b600080fd5b6100f56100f0366004611d59565b6102cd565b005b34801561010357600080fd5b506100f5610112366004611e32565b610548565b34801561012357600080fd5b50610137610132366004611f01565b6106d4565b6040516101449190611f60565b60405180910390f35b34801561015957600080fd5b5061016360035481565b604051908152602001610144565b34801561017d57600080fd5b506100f5610800565b34801561019257600080fd5b506101a66101a1366004611f01565b610814565b6040516101449190611fee565b3480156101bf57600080fd5b506000546040516001600160a01b039091168152602001610144565b3480156101e757600080fd5b506101fb6101f6366004611f01565b6109bf565b604051610144919061217c565b34801561021457600080fd5b50610228610223366004611f01565b610c02565b6040516101449190612196565b34801561024157600080fd5b506100f56102503660046121f8565b610ce3565b34801561026157600080fd5b5061026a610fdf565b604051610144919061229c565b34801561028357600080fd5b506100f5610292366004611d59565b6112bd565b3480156102a357600080fd5b5061016360025481565b3480156102b957600080fd5b506100f56102c83660046122f1565b61188a565b600082815260076020908152604080832084845290915290205460ff161561033c5760405162461bcd60e51b815260206004820152601960248201527f4c75636b79206e756d62657220616c726561647920757365640000000000000060448201526064015b60405180910390fd5b6000828152600460205260409020600501543410156103a75760405162461bcd60e51b815260206004820152602160248201527f696e73756666696369656e742065746865727320746f206275792065746865726044820152607360f81b6064820152608401610333565b60008281526004602052604081206006018054916103c483612330565b9091555050600082815260056020908152604080832081516060810183523381528685526006845291909320805491928301918590811061040757610407612349565b90600052602060002001805461041c9061235f565b80601f01602080910402602001604051908101604052809291908181526020018280546104489061235f565b80156104955780601f1061046a57610100808354040283529160200191610495565b820191906000526020600020905b81548152906001019060200180831161047857829003601f168201915b50505091835250506000602091820181905283546001808201865594825290829020835160039092020180546001600160a01b0319166001600160a01b039092169190911781559082015191929091908201906104f290826123e7565b506040918201516002909101805491151560ff199283161790556000848152600760209081528382208583529052918220805490911660011790556003805434929061053f9084906124a7565b90915550505050565b60008281526004602052604090206007015461010090046001600160a01b031633146105ac5760405162461bcd60e51b8152602060048201526013602482015272556e617574686f72697a656420656e7469747960681b6044820152606401610333565b6000828152600660205260409020546001116105fe5760405162461bcd60e51b8152602060048201526011602482015270105b1c9958591e4819d95b995c985d1959607a1b6044820152606401610333565b60008281526004602052604090206006015460011161065f5760405162461bcd60e51b815260206004820152601b60248201527f5469636b6574732068617665206265656e2070757263686173656400000000006044820152606401610333565b60008151116106b05760405162461bcd60e51b815260206004820152601c60248201527f4c75636b79206e756d626572732063616e6e6f74206265207a65726f000000006044820152606401610333565b600082815260066020908152604090912082516106cf92840190611c3b565b505050565b606060056000838152602001908152602001600020805480602002602001604051908101604052809291908181526020016000905b828210156107f557600084815260209081902060408051606081019091526003850290910180546001600160a01b0316825260018101805492939192918401916107529061235f565b80601f016020809104026020016040519081016040528092919081815260200182805461077e9061235f565b80156107cb5780601f106107a0576101008083540402835291602001916107cb565b820191906000526020600020905b8154815290600101906020018083116107ae57829003601f168201915b50505091835250506002919091015460ff1615156020918201529082526001929092019101610709565b505050509050919050565b610808611903565b610812600061195d565b565b6108516040518060c00160405280600081526020016000151581526020016000151581526020016000815260200160008152602001606081525090565b6000828152600860209081526040808320815160c08101835281548152600182015460ff8082161515838701526101009091041615158184015260028201546060820152600382015460808201526004820180548451818702810187019095528085529195929460a0870194939192919084015b828210156109b157600084815260209081902060408051606081019091526003850290910180546001600160a01b03168252600181018054929391929184019161090e9061235f565b80601f016020809104026020016040519081016040528092919081815260200182805461093a9061235f565b80156109875780601f1061095c57610100808354040283529160200191610987565b820191906000526020600020905b81548152906001019060200180831161096a57829003601f168201915b50505091835250506002919091015460ff16151560209182015290825260019290920191016108c5565b505050915250909392505050565b6109c7611c8d565b600460008381526020019081526020016000206040518061016001604052908160008201548152602001600182018054610a009061235f565b80601f0160208091040260200160405190810160405280929190818152602001828054610a2c9061235f565b8015610a795780601f10610a4e57610100808354040283529160200191610a79565b820191906000526020600020905b815481529060010190602001808311610a5c57829003601f168201915b50505050508152602001600282018054610a929061235f565b80601f0160208091040260200160405190810160405280929190818152602001828054610abe9061235f565b8015610b0b5780601f10610ae057610100808354040283529160200191610b0b565b820191906000526020600020905b815481529060010190602001808311610aee57829003601f168201915b50505050508152602001600382018054610b249061235f565b80601f0160208091040260200160405190810160405280929190818152602001828054610b509061235f565b8015610b9d5780601f10610b7257610100808354040283529160200191610b9d565b820191906000526020600020905b815481529060010190602001808311610b8057829003601f168201915b5050509183525050600482015460208201526005820154604082015260068201546060820152600782015460ff81161515608083015261010090046001600160a01b031660a0820152600882015460c082015260099091015460e09091015292915050565b606060066000838152602001908152602001600020805480602002602001604051908101604052809291908181526020016000905b828210156107f5578382906000526020600020018054610c569061235f565b80601f0160208091040260200160405190810160405280929190818152602001828054610c829061235f565b8015610ccf5780601f10610ca457610100808354040283529160200191610ccf565b820191906000526020600020905b815481529060010190602001808311610cb257829003601f168201915b505050505081526020019060010190610c37565b6000865111610d2c5760405162461bcd60e51b81526020600482015260156024820152747469746c652063616e6e6f7420626520656d70747960581b6044820152606401610333565b6000855111610d7d5760405162461bcd60e51b815260206004820152601b60248201527f6465736372697074696f6e2063616e6e6f7420626520656d70747900000000006044820152606401610333565b6000845111610dc65760405162461bcd60e51b8152602060048201526015602482015274696d6167652063616e6e6f7420626520656d70747960581b6044820152606401610333565b60008311610e0d5760405162461bcd60e51b81526020600482015260146024820152737072697a652063616e6e6f74206265207a65726f60601b6044820152606401610333565b60008211610e5d5760405162461bcd60e51b815260206004820152601a60248201527f7469636b657450726963652063616e6e6f74206265207a65726f0000000000006044820152606401610333565b428111610ebc5760405162461bcd60e51b815260206004820152602760248201527f65787069726541742063616e6e6f74206265206c657373207468616e207468656044820152662066757475726560c81b6064820152608401610333565b610eca600180546001019055565b610ed2611c8d565b6001805480835260208084018a815260408086018b9052606086018a90526080860189905260a08601889052336101008701524261012087015261014086018790526000938452600490925291208351815590518392820190610f3590826123e7565b5060408201516002820190610f4a90826123e7565b5060608201516003820190610f5f90826123e7565b506080820151600482015560a0820151600582015560c0820151600682015560e0820151600782018054610100808601516001600160a01b031602610100600160a81b0319931515939093166001600160a81b03199091161791909117905561012082015160088201556101409091015160099091015550505050505050565b6060610fea60015490565b67ffffffffffffffff81111561100257611002611d7b565b60405190808252806020026020018201604052801561103b57816020015b611028611c8d565b8152602001906001900390816110205790505b50905060015b60015481116112b9576004600082815260200190815260200160002060405180610160016040529081600082015481526020016001820180546110839061235f565b80601f01602080910402602001604051908101604052809291908181526020018280546110af9061235f565b80156110fc5780601f106110d1576101008083540402835291602001916110fc565b820191906000526020600020905b8154815290600101906020018083116110df57829003601f168201915b505050505081526020016002820180546111159061235f565b80601f01602080910402602001604051908101604052809291908181526020018280546111419061235f565b801561118e5780601f106111635761010080835404028352916020019161118e565b820191906000526020600020905b81548152906001019060200180831161117157829003601f168201915b505050505081526020016003820180546111a79061235f565b80601f01602080910402602001604051908101604052809291908181526020018280546111d39061235f565b80156112205780601f106111f557610100808354040283529160200191611220565b820191906000526020600020905b81548152906001019060200180831161120357829003601f168201915b5050509183525050600482015460208201526005820154604082015260068201546060820152600782015460ff81161515608083015261010090046001600160a01b031660a0820152600882015460c082015260099091015460e0909101528261128b6001846124c0565b8151811061129b5761129b612349565b602002602001018190525080806112b190612330565b915050611041565b5090565b60008281526004602052604090206007015461010090046001600160a01b031633148061130e575060008054838252600460205260409091206007015461010090046001600160a01b039081169116145b6113505760405162461bcd60e51b8152602060048201526013602482015272556e617574686f72697a656420656e7469747960681b6044820152606401610333565b60008281526008602052604090206001015460ff16156113be5760405162461bcd60e51b815260206004820152602360248201527f4c6f7474657279206861766520616c7265616479206265656e20636f6d706c656044820152621d195960ea1b6064820152608401610333565b6000828152600560205260409020548111156114355760405162461bcd60e51b815260206004820152603060248201527f4e756d626572206f662077696e6e6572732065786365656473206e756d62657260448201526f206f66207061727469636970616e747360801b6064820152608401610333565b60008167ffffffffffffffff81111561145057611450611d7b565b6040519080825280602002602001820160405280156114b057816020015b61149d604051806060016040528060006001600160a01b03168152602001606081526020016000151581525090565b81526020019060019003908161146e5790505b509050600060056000858152602001908152602001600020805480602002602001604051908101604052809291908181526020016000905b828210156115d457600084815260209081902060408051606081019091526003850290910180546001600160a01b0316825260018101805492939192918401916115319061235f565b80601f016020809104026020016040519081016040528092919081815260200182805461155d9061235f565b80156115aa5780601f1061157f576101008083540402835291602001916115aa565b820191906000526020600020905b81548152906001019060200180831161158d57829003601f168201915b50505091835250506002919091015460ff16151560209182015290825260019290920191016114e8565b5050505090506000815167ffffffffffffffff8111156115f6576115f6611d7b565b60405190808252806020026020018201604052801561161f578160200160208202803683370190505b50905060005b825181101561165e578082828151811061164157611641612349565b60209081029190910101528061165681612330565b915050611625565b5060006001835161166f91906124c0565b90505b600181106117495760006116878260016124a7565b604080514260208201529081018490526060016040516020818303038152906040528051906020012060001c6116bd91906124e9565b905060008382815181106116d3576116d3612349565b602002602001015190508383815181106116ef576116ef612349565b602002602001015184838151811061170957611709612349565b6020026020010181815250508084848151811061172857611728612349565b60200260200101818152505050508080611741906124fd565b915050611672565b5060005b84811015611851578282828151811061176857611768612349565b60200260200101518151811061178057611780612349565b602002602001015184828151811061179a5761179a612349565b6020026020010181905250600860008781526020019081526020016000206004018482815181106117cd576117cd612349565b602090810291909101810151825460018082018555600094855293839020825160039092020180546001600160a01b0319166001600160a01b0390921691909117815591810151909282019061182390826123e7565b50604091909101516002909101805460ff19169115159190911790558061184981612330565b91505061174d565b5060008581526008602052604090208581556001808201805460ff1916909117905542600290910155611883856119ad565b5050505050565b611892611903565b6001600160a01b0381166118f75760405162461bcd60e51b815260206004820152602660248201527f4f776e61626c653a206e6577206f776e657220697320746865207a65726f206160448201526564647265737360d01b6064820152608401610333565b6119008161195d565b50565b6000546001600160a01b031633146108125760405162461bcd60e51b815260206004820181905260248201527f4f776e61626c653a2063616c6c6572206973206e6f7420746865206f776e65726044820152606401610333565b600080546001600160a01b038381166001600160a01b0319831681178455604051919092169283917f8be0079c531659141344cd1fd0a4f28419497f9722a3daafe3b4186f6b6457e09190a35050565b600081815260086020908152604080832060040180548251818502810185019093528083529192909190849084015b82821015611ac857600084815260209081902060408051606081019091526003850290910180546001600160a01b031682526001810180549293919291840191611a259061235f565b80601f0160208091040260200160405190810160405280929190818152602001828054611a519061235f565b8015611a9e5780601f10611a7357610100808354040283529160200191611a9e565b820191906000526020600020905b815481529060010190602001808311611a8157829003601f168201915b50505091835250506002919091015460ff16151560209182015290825260019290920191016119dc565b50505060008481526005602081815260408084205460049092528320909101549394509092611af79250612514565b90506000606460025483611b0b9190612514565b611b15919061252b565b90506000611b2382846124c0565b90506000845182611b34919061252b565b905060005b8551811015611b7b57611b69868281518110611b5757611b57612349565b60200260200101516000015183611bdb565b80611b7381612330565b915050611b39565b50611b97611b916000546001600160a01b031690565b84611bdb565b8360036000828254611ba991906124c0565b909155505060009586526008602052604090952060018101805461ff0019166101001790556003019490945550505050565b6000826001600160a01b03168260405160006040518083038185875af1925050503d8060008114611c28576040519150601f19603f3d011682016040523d82523d6000602084013e611c2d565b606091505b50509050806106cf57600080fd5b828054828255906000526020600020908101928215611c81579160200282015b82811115611c815782518290611c7190826123e7565b5091602001919060010190611c5b565b506112b9929150611cf2565b6040518061016001604052806000815260200160608152602001606081526020016060815260200160008152602001600081526020016000815260200160001515815260200160006001600160a01b0316815260200160008152602001600081525090565b808211156112b9576000611d068282611d0f565b50600101611cf2565b508054611d1b9061235f565b6000825580601f10611d2b575050565b601f01602090049060005260206000209081019061190091905b808211156112b95760008155600101611d45565b60008060408385031215611d6c57600080fd5b50508035926020909101359150565b634e487b7160e01b600052604160045260246000fd5b604051601f8201601f1916810167ffffffffffffffff81118282101715611dba57611dba611d7b565b604052919050565b600082601f830112611dd357600080fd5b813567ffffffffffffffff811115611ded57611ded611d7b565b611e00601f8201601f1916602001611d91565b818152846020838601011115611e1557600080fd5b816020850160208301376000918101602001919091529392505050565b60008060408385031215611e4557600080fd5b8235915060208084013567ffffffffffffffff80821115611e6557600080fd5b818601915086601f830112611e7957600080fd5b813581811115611e8b57611e8b611d7b565b8060051b611e9a858201611d91565b918252838101850191858101908a841115611eb457600080fd5b86860192505b83831015611ef057823585811115611ed25760008081fd5b611ee08c89838a0101611dc2565b8352509186019190860190611eba565b809750505050505050509250929050565b600060208284031215611f1357600080fd5b5035919050565b6000815180845260005b81811015611f4057602081850181015186830182015201611f24565b506000602082860101526020601f19601f83011685010191505092915050565b60006020808301818452808551808352604092508286019150828160051b87010184880160005b83811015611fe057888303603f19018552815180516001600160a01b0316845287810151606089860181905290611fc082870182611f1a565b928901511515958901959095525094870194925090860190600101611f87565b509098975050505050505050565b6000602080835260e0830184518285015281850151604081151581870152808701519150606082151581880152808801516080880152608088015160a088015260a0880151925060c08088015283835180865261010095508589019150858160051b8a01019550868501945060005b818110156120b25789870360ff19018352855180516001600160a01b0316885288810151898901869052612093868a0182611f1a565b918701511515988701989098529650948701949187019160010161205d565b50949998505050505050505050565b60006101608251845260208301518160208601526120e182860182611f1a565b915050604083015184820360408601526120fb8282611f1a565b915050606083015184820360608601526121158282611f1a565b9150506080830151608085015260a083015160a085015260c083015160c085015260e083015161214960e086018215159052565b50610100838101516001600160a01b03169085015261012080840151908501526101409283015192909301919091525090565b60208152600061218f60208301846120c1565b9392505050565b6000602080830181845280855180835260408601915060408160051b870101925083870160005b828110156121eb57603f198886030184526121d9858351611f1a565b945092850192908501906001016121bd565b5092979650505050505050565b60008060008060008060c0878903121561221157600080fd5b863567ffffffffffffffff8082111561222957600080fd5b6122358a838b01611dc2565b9750602089013591508082111561224b57600080fd5b6122578a838b01611dc2565b9650604089013591508082111561226d57600080fd5b5061227a89828a01611dc2565b945050606087013592506080870135915060a087013590509295509295509295565b6000602080830181845280855180835260408601915060408160051b870101925083870160005b828110156121eb57603f198886030184526122df8583516120c1565b945092850192908501906001016122c3565b60006020828403121561230357600080fd5b81356001600160a01b038116811461218f57600080fd5b634e487b7160e01b600052601160045260246000fd5b6000600182016123425761234261231a565b5060010190565b634e487b7160e01b600052603260045260246000fd5b600181811c9082168061237357607f821691505b60208210810361239357634e487b7160e01b600052602260045260246000fd5b50919050565b601f8211156106cf57600081815260208120601f850160051c810160208610156123c05750805b601f850160051c820191505b818110156123df578281556001016123cc565b505050505050565b815167ffffffffffffffff81111561240157612401611d7b565b6124158161240f845461235f565b84612399565b602080601f83116001811461244a57600084156124325750858301515b600019600386901b1c1916600185901b1785556123df565b600085815260208120601f198616915b828110156124795788860151825594840194600190910190840161245a565b50858210156124975787850151600019600388901b60f8161c191681555b5050505050600190811b01905550565b808201808211156124ba576124ba61231a565b92915050565b818103818111156124ba576124ba61231a565b634e487b7160e01b600052601260045260246000fd5b6000826124f8576124f86124d3565b500690565b60008161250c5761250c61231a565b506000190190565b80820281158282048414176124ba576124ba61231a565b60008261253a5761253a6124d3565b50049056fea26469706673582212203f6520da5c0bac838f789a431c6aba925b4e20c5262cea60654e29d763872db764736f6c63430008110033",
  "linkReferences": {},
  "deployedLinkReferences": {}
}